{
    "contractName": "myContract",
    "abi": [
        {
            "inputs": [
                {
                    "internalType": "uint256",
                    "name": "_index",
                    "type": "uint256"
                }
            ],
            "name": "setValue",
            "outputs": [],
            "stateMutability": "nonpayable",
            "type": "function"
        }
    ],
    "bytecode": "6080604052348015600f57600080fd5b5060a28061001e6000396000f3fe6080604052348015600f57600080fd5b506004361060285760003560e01c80635524107714602d575b600080fd5b605360383660046055565b6000908152602081905260409020805460ff19166001179055565b005b6000602082840312156065578081fd5b503591905056fea2646970667358221220cfadcfa6a5388082fb6be016287596d12fc0159c6a724c04fd8eb8606f24653c64736f6c63430008040033",
    "sourcePath": "c:/Users/swapt/Desktop/Programming/mapping.sol",
    "compiler": {
        "name": "solc",
        "version": "0.8.4+commit.c7e474f2"
    },
    "functionHashes": {
        "setValue(uint256)": "55241077"
    },
    "gasEstimates": {
        "creation": {
            "codeDepositCost": "32400",
            "executionCost": "87",
            "totalCost": "32487"
        },
        "external": {
            "setValue(uint256)": "21080"
        }
    }
}