{
    "contractName": "myContract",
    "abi": [
        {
            "inputs": [
                {
                    "internalType": "string",
                    "name": "_firstName",
                    "type": "string"
                },
                {
                    "internalType": "string",
                    "name": "_lastName",
                    "type": "string"
                },
                {
                    "internalType": "uint256",
                    "name": "_age",
                    "type": "uint256"
                },
                {
                    "internalType": "bool",
                    "name": "_isMarried",
                    "type": "bool"
                }
            ],
            "name": "arraywithinput",
            "outputs": [],
            "stateMutability": "nonpayable",
            "type": "function"
        },
        {
            "inputs": [],
            "name": "directobject",
            "outputs": [],
            "stateMutability": "nonpayable",
            "type": "function"
        },
        {
            "inputs": [],
            "name": "human1",
            "outputs": [
                {
                    "internalType": "string",
                    "name": "firstName",
                    "type": "string"
                },
                {
                    "internalType": "string",
                    "name": "lastName",
                    "type": "string"
                },
                {
                    "internalType": "uint256",
                    "name": "age",
                    "type": "uint256"
                },
                {
                    "internalType": "bool",
                    "name": "isMarried",
                    "type": "bool"
                }
            ],
            "stateMutability": "view",
            "type": "function"
        },
        {
            "inputs": [
                {
                    "internalType": "uint256",
                    "name": "",
                    "type": "uint256"
                }
            ],
            "name": "human2",
            "outputs": [
                {
                    "internalType": "string",
                    "name": "firstName",
                    "type": "string"
                },
                {
                    "internalType": "string",
                    "name": "lastName",
                    "type": "string"
                },
                {
                    "internalType": "uint256",
                    "name": "age",
                    "type": "uint256"
                },
                {
                    "internalType": "bool",
                    "name": "isMarried",
                    "type": "bool"
                }
            ],
            "stateMutability": "view",
            "type": "function"
        },
        {
            "inputs": [
                {
                    "internalType": "uint256",
                    "name": "",
                    "type": "uint256"
                }
            ],
            "name": "person",
            "outputs": [
                {
                    "internalType": "string",
                    "name": "firstName",
                    "type": "string"
                },
                {
                    "internalType": "string",
                    "name": "lastName",
                    "type": "string"
                },
                {
                    "internalType": "uint256",
                    "name": "age",
                    "type": "uint256"
                },
                {
                    "internalType": "bool",
                    "name": "isMarried",
                    "type": "bool"
                }
            ],
            "stateMutability": "view",
            "type": "function"
        },
        {
            "inputs": [],
            "name": "personCount",
            "outputs": [
                {
                    "internalType": "uint256",
                    "name": "",
                    "type": "uint256"
                }
            ],
            "stateMutability": "view",
            "type": "function"
        }
    ],
    "bytecode": "608060405234801561001057600080fd5b50610689806100206000396000f3fe608060405234801561001057600080fd5b50600436106100625760003560e01c8063092a182014610067578063300ebbfb1461009357806378495bf81461009d578063ae5e1170146100b4578063cc27dee5146100bc578063e239bc6b146100cf575b600080fd5b61007a610075366004610561565b6100e2565b60405161008a94939291906105c4565b60405180910390f35b61009b61021e565b005b6100a660005481565b60405190815260200161008a565b61007a6102cc565b61009b6100ca3660046104e0565b6102db565b61007a6100dd366004610561565b61038d565b6006602052600090815260409020805481906100fd90610602565b80601f016020809104026020016040519081016040528092919081815260200182805461012990610602565b80156101765780601f1061014b57610100808354040283529160200191610176565b820191906000526020600020905b81548152906001019060200180831161015957829003601f168201915b50505050509080600101805461018b90610602565b80601f01602080910402602001604051908101604052809291908181526020018280546101b790610602565b80156102045780601f106101d957610100808354040283529160200191610204565b820191906000526020600020905b8154815290600101906020018083116101e757829003601f168201915b50505050600283015460039093015491929160ff16905084565b6040805160c081018252600660808201908152650a4d2e8cae6d60d31b60a083015281528151808301835260048152636d6f646960e01b60208281019190915280830191909152601a92820192909252600160608201819052815180519293919261028c92849201906103c0565b5060208281015180516102a592600185019201906103c0565b50604082015160028201556060909101516003909101805460ff1916911515919091179055565b6001805481906100fd90610602565b60408051608081018252858152602080820186905291810184905282151560608201526005805460018101825560009190915281518051929360049092027f036b6384b5eca791c62761152d0c79bb0604c104a5fb6f4eb0703f3154bb3db0019261034992849201906103c0565b50602082810151805161036292600185019201906103c0565b50604082015160028201556060909101516003909101805460ff191691151591909117905550505050565b6005818154811061039d57600080fd5b90600052602060002090600402016000915090508060000180546100fd90610602565b8280546103cc90610602565b90600052602060002090601f0160209004810192826103ee5760008555610434565b82601f1061040757805160ff1916838001178555610434565b82800160010185558215610434579182015b82811115610434578251825591602001919060010190610419565b50610440929150610444565b5090565b5b808211156104405760008155600101610445565b600082601f830112610469578081fd5b813567ffffffffffffffff808211156104845761048461063d565b604051601f8301601f19908116603f011681019082821181831017156104ac576104ac61063d565b816040528381528660208588010111156104c4578485fd5b8360208701602083013792830160200193909352509392505050565b600080600080608085870312156104f5578384fd5b843567ffffffffffffffff8082111561050c578586fd5b61051888838901610459565b9550602087013591508082111561052d578485fd5b5061053a87828801610459565b9350506040850135915060608501358015158114610556578182fd5b939692955090935050565b600060208284031215610572578081fd5b5035919050565b60008151808452815b8181101561059e57602081850181015186830182015201610582565b818111156105af5782602083870101525b50601f01601f19169290920160200192915050565b6000608082526105d76080830187610579565b82810360208401526105e98187610579565b6040840195909552505090151560609091015292915050565b60028104600182168061061657607f821691505b6020821081141561063757634e487b7160e01b600052602260045260246000fd5b50919050565b634e487b7160e01b600052604160045260246000fdfea264697066735822122018969f40ac083bf3b8a17cbe79c873a5051e6b02fea2cedc0d056b836b42bee464736f6c63430008020033",
    "sourcePath": "c:/Users/swapt/Desktop/Programming/struct.sol",
    "compiler": {
        "name": "solc",
        "version": "0.8.2+commit.661d1103"
    },
    "functionHashes": {
        "arraywithinput(string,string,uint256,bool)": "cc27dee5",
        "directobject()": "300ebbfb",
        "human1()": "ae5e1170",
        "human2(uint256)": "e239bc6b",
        "person(uint256)": "092a1820",
        "personCount()": "78495bf8"
    },
    "gasEstimates": {
        "creation": {
            "codeDepositCost": "334600",
            "executionCost": "374",
            "totalCost": "334974"
        },
        "external": {
            "arraywithinput(string,string,uint256,bool)": "infinite",
            "directobject()": "infinite",
            "human1()": "infinite",
            "human2(uint256)": "infinite",
            "person(uint256)": "infinite",
            "personCount()": "1017"
        }
    }
}